:100000000C9436000C945E000C945E000C945E0020
:100010000C945E000C945E000C945E000C945E00E8
:100020000C945E000C945E000C945E000C945E00D8
:100030000C945E000C945E000C945E000C945E00C8
:100040000C94E3000C945E000C94FF010C943902B4
:100050000C945E000C945E000C945E000C945E00A8
:100060000C945E000C945E00DF00F50211241FBEAC
:10007000CFEFD8E0DEBFCDBF11E0A0E0B1E0E8E80F
:10008000FEE002C005900D92A43EB107D9F712E040
:10009000A4EEB1E001C01D92A03AB107E1F710E073
:1000A000CCE6D0E004C02297FE010E943E07C8368D
:1000B000D107C9F70E9460000C9417070C94000048
:1000C000EF92FF920F931F93CF93DF93CDB7DEB7DD
:1000D00062970FB6F894DEBF0FBECDBF0E942D0110
:1000E00088EE91E00E94910540E855E260E070E002
:1000F00082EF91E00E94740262E171E082EF91E090
:100100000E94A60306E010E020E030E04CE051E061
:1001100060E3CE010A960E947F0406E010E020E032
:1001200030E046E051E061E3CE0101960E947F0499
:1001300068E171E082EF91E00E948903CE010196AF
:100140000E948E04682F82EF91E00E94B803EA8437
:10015000FB840C851D852E853F85488959896A89D0
:1001600084EE91E00E94B504E980FA800B811C8145
:100170002D813E814F815885698584EE91E00E94F2
:10018000B50460E271E082EF91E00E94A6032FEFD8
:1001900083ED90E3215080409040E1F700C00000E3
:1001A00080E090E062960FB6F894DEBF0FBECDBF40
:1001B000DF91CF911F910F91FF90EF90089584EE02
:1001C00091E00C949B041F920F920FB60F92112492
:1001D0002F933F938F939F93AF93BF938091EA01A7
:1001E0009091EB01A091EC01B091ED013091E9010A
:1001F00023E0230F2D3720F40196A11DB11D05C06A
:1002000026E8230F0296A11DB11D2093E9018093DA
:10021000EA019093EB01A093EC01B093ED01809182
:10022000EE019091EF01A091F001B091F1010196E2
:10023000A11DB11D8093EE019093EF01A093F001F9
:10024000B093F101BF91AF919F918F913F912F9109
:100250000F900FBE0F901F901895789484B5826010
:1002600084BD84B5816084BD85B5826085BD85B55A
:10027000816085BDEEE6F0E0808181608083E1E809
:10028000F0E0108280818260808380818160808341
:10029000E0E8F0E0808181608083E1EBF0E0808144
:1002A00084608083E0EBF0E0808181608083EAE716
:1002B000F0E080818460808380818260808380819F
:1002C000816080838081806880831092C10008955E
:1002D000FC0124853585F901E05CFF4F8081918127
:1002E000F901EE5BFF4F20813181821B930B8F73ED
:1002F00099270895FC0184859585FC01E05CFF4FFA
:1003000040815181FC01EE5BFF4F2081318142171A
:10031000530741F00190F081E02DE80FF91F808133
:1003200090E008958FEF9FEF0895FC0184859585F7
:10033000FC01E05CFF4F40815181FC01EE5BFF4F0F
:10034000208131814217530779F0A081B181A80F34
:10035000B91F8C91208131812F5F3F4F2F7333273D
:100360003183208390E008958FEF9FEF0895FC0183
:1003700081A1882329F0A489B5898C9186FFFBCFC0
:1003800011A20895CF93DF93FC0126853785D9010B
:10039000A05CBF4F8D919C91119701968F73992707
:1003A000E901CE5BDF4F4881598184179507D9F366
:1003B0000D90BC91A02DA20FB31F6C93A685B7859D
:1003C000A05CBF4F11969C938E93A689B7892C9100
:1003D00081E090E0078C02C0880F991F0A94E2F731
:1003E000282B2C9381E081A30488F589E02D80815E
:1003F0008064808381E090E0DF91CF9108951F9227
:100400000F920FB60F9211242F933F934F938F9318
:100410009F93EF93FF938091C00082FD1CC0409199
:10042000C600809198029091990201968F73992746
:1004300020919A0230919B028217930771F0E0910C
:100440009802F0919902E85AFD4F408390939902E7
:100450008093980202C08091C600FF91EF919F9116
:100460008F914F913F912F910F900FBE0F901F9042
:1004700018951F920F920FB60F9211242F933F934E
:100480008F939F93EF93FF932091540230915502E5
:1004900080915602909157022817390731F48091C4
:1004A000C1008F7D8093C10014C0E0915602F0918D
:1004B0005702EC5EFD4F20818091560290915702C9
:1004C00001968F7399279093570280935602209339
:1004D000C600FF91EF919F918F913F912F910F90C7
:1004E0000FBE0F901F901895CF92DF92EF92FF9260
:1004F000CF93DF93EC016A017B01411581EE580730
:1005000061057105F9F0EC89FD8981E090E008A0B2
:1005100002C0880F991F0A94E2F7808360E079E0B7
:100520008DE390E0A70196010E941A07215031093E
:10053000410951095695479537952795211580E131
:10054000380798F0EC89FD89108260E874E88EE144
:1005500090E0A70196010E941A0721503109410934
:1005600051095695479537952795E889F98930833C
:10057000EA89FB89208319A2EE89FF89408181E005
:1005800090E09C010C8C02C0220F331F0A94E2F70A
:10059000422B4083EE89FF8940819C010D8C02C073
:1005A000220F331F0A94E2F7422B4083EE89FF8922
:1005B00040819C010E8C02C0220F331F0A94E2F787
:1005C000422B4083EE89FF8920810F8C02C0880F67
:1005D000991F0A94E2F7809582238083DF91CF915F
:1005E000FF90EF90DF90CF9008951092F501109258
:1005F000F40188EE93E0A0E0B0E08093F6019093E0
:10060000F701A093F801B093F9018AE291E0909389
:10061000F3018093F20188E592E09093FF018093CB
:10062000FE0184E192E0909301028093000285EC48
:1006300090E0909303028093020284EC90E0909308
:1006400005028093040280EC90E09093070280936F
:10065000060281EC90E0909309028093080282ECFC
:1006600090E090930B0280930A0286EC90E09093C6
:100670000D0280930C0284E080930E0283E080934D
:100680000F0287E08093100285E08093110281E0E1
:10069000809312020895CF92DF92EF92FF920F9310
:1006A0001F93CF93DF936C017A01EB01E60EF71EE7
:1006B00000E010E0CE15DF0561F06991D601ED9103
:1006C000FC910190F081E02DC6010995080F191FDA
:1006D000F1CFC801DF91CF911F910F91FF90EF9063
:1006E000DF90CF9008956115710581F0DB010D90C9
:1006F0000020E9F7AD0141505109461B570BDC01C1
:10070000ED91FC910280F381E02D099480E090E06E
:1007100008950C947303DC01ED91FC910190F0813C
:10072000E02D09940F931F93CF93DF93EC016DE0BD
:100730000E948B038C016AE0CE010E948B03800F24
:10074000911FDF91CF911F910F9108950F931F93E8
:10075000CF93DF93EC010E9473038C01CE010E94C2
:100760009203800F911FDF91CF911F910F910895F8
:100770000F931F93CF93DF93EC010E948B038C01A7
:10078000CE010E949203800F911FDF91CF911F91A4
:100790000F9108958F929F92AF92BF92CF92DF9266
:1007A000EF92FF920F931F93CF93DF93CDB7DEB7F6
:1007B000A1970FB6F894DEBF0FBECDBF7C01C42E4B
:1007C000E52FCB01D22E19A221E02D1510F02AE041
:1007D000D22E8E010F5D1F4F8D2C912CA12CB12C90
:1007E0006C2D7E2FA50194010E941A078C2DD29E9C
:1007F00080191124015011098A3014F4805D01C060
:10080000895CF8018083211531054105510521F0EE
:10081000C22EE32FCA01E4CFB801C7010E947303BF
:10082000A1960FB6F894DEBF0FBECDBFDF91CF917A
:100830001F910F91FF90EF90DF90CF90BF90AF90FE
:100840009F908F900895CF92DF92EF92FF920F9337
:100850001F93CF93DF93EC016A017B0121153105D2
:1008600079F4E881F9810190F081E02D642FDF9126
:10087000CF911F910F91FF90EF90DF90CF9009944F
:100880002A303105E9F477FF1AC06DE20E948B032C
:100890008C0144275527BA014C195D096E097F095F
:1008A0002AE0CE010E94CA03800F911FDF91CF91F1
:1008B0001F910F91FF90EF90DF90CF9008952AE065
:1008C000B701A601CE01DF91CF911F910F91FF904B
:1008D000EF90DF90CF900C94CA030F931F93CF93A8
:1008E000DF93EC010E9423048C01CE010E9492034D
:1008F000800F911FDF91CF911F910F9108950F935A
:100900001F93FC01608352834183038314832583F7
:100910003683178210861F910F910895FC01808104
:100920000895FC01818192810895FC0163817481A5
:10093000858196810895CF93DF93EC0140E855E2DD
:1009400060E070E082EF91E00E94740266E371E083
:1009500082EF91E00E94A60382E090E00E94F00501
:100960009B838A83DF91CF910895CF92DF92EF929C
:10097000FF920F931F93CF93DF93CDB7DEB72997E5
:100980000FB6F894DEBF0FBECDBF6C01E982FA82CC
:100990000B831C832D833E834F835887698763E4D1
:1009A00071E082EF91E00E94A603F60182819381BB
:1009B000892BF1F56FE471E082EF91E00E94A603CC
:1009C000CE0101960E949504AB01BC012AE030E003
:1009D00082EF91E00E946D04CE0101960E94910485
:1009E000F601A281B38189E0FE01319601900D925A
:1009F0008A95E1F7CE0101960E949504AB01BC01F6
:100A00002AE030E082EF91E00E946D04F6018281DD
:100A100093810E948E04682F82EF91E00E94B803B8
:100A2000F6010281138182E090E00E94F0052EC061
:100A30006CE571E082EF91E00E94A603F60102816D
:100A4000138109C061E871E082EF91E00E94A60382
:100A5000F8010185128501151105D9F0F80181858C
:100A60009285892B79F76FE671E082EF91E00E9421
:100A7000A60329E0FE01319680E090E0DC010190C0
:100A80000D922A95E1F7FC0112861186F8019287F2
:100A90008187F60182819381892B19F466EA71E0DE
:100AA00002C063EB71E082EF91E00E94A6032996F9
:100AB0000FB6F894DEBF0FBECDBFDF91CF911F916F
:100AC0000F91FF90EF90DF90CF90089584EA80938C
:100AD000BC008091BC0087FFFCCF08956093BB00F1
:100AE00084E88093BC008091BC0087FFFCCF089510
:100AF0006093BB0084E88093BC008091BC0087FFBA
:100B0000FCCF08951F93CF93DF93EC01162F60E87D
:100B10000E947805612FCE01DF91CF911F910C9437
:100B20007805CF93DF93EC010E94660568E7CE015C
:100B30000E946E056EEACE010E94820565EDCE012F
:100B40000E94820560E8CE010E9482056DE8CE0118
:100B50000E94820564E1CE010E94820560E2CE011E
:100B60000E94820560E0CE010E94820561EACE010A
:100B70000E94820568ECCE010E9482056AEDCE01DA
:100B80000E94820562E1CE010E94820568EACE01E0
:100B90000E9482056FE3CE010E94820563EDCE01C3
:100BA0000E94820560E0CE010E94820560E4CE01D1
:100BB0000E94820560EBCE010E94820562E0CE01B8
:100BC0000E94820560E1CE010E9482056FEACE019B
:100BD0000E94820580EA8093BC00DF91CF91089546
:100BE000CF93DF938230910510F482E090E0E091A2
:100BF0009E02F0919F0220E030E0A0E0B0E030974C
:100C000039F14081518148175907B8F04817590701
:100C100071F482819381109729F013969C938E939F
:100C200012972CC090939F0280939E0227C021159B
:100C3000310531F04217530718F0A901DB0101C05B
:100C4000EF019A01BD01DF010280F381E02DD7CFD2
:100C500021153105F9F0281B390B2430310580F4BA
:100C60008A819B816115710521F0FB019383828349
:100C700004C090939F0280939E02FE01329644C06E
:100C8000FE01E20FF31F81939193225031093983C2
:100C900028833AC020919C0230919D02232B41F47D
:100CA000209102013091030130939D0220939C0218
:100CB00020910001309101012115310541F42DB73A
:100CC0003EB74091040150910501241B350BE09182
:100CD0009C02F0919D02E217F307A0F42E1B3F0B3C
:100CE0002817390778F0AC014E5F5F4F241735079E
:100CF00048F04E0F5F1F50939D0240939C028193DA
:100D0000919302C0E0E0F0E0CF01DF91CF91089530
:100D1000CF93DF93009709F487C0FC0132971382C9
:100D20001282C0919E02D0919F02209781F420816F
:100D30003181280F391F80919C0290919D0282176A
:100D4000930779F5F0939D02E0939C026DC0DE015C
:100D500020E030E0AE17BF0750F412964D915C9141
:100D600013979D014115510509F1DA01F3CFB383C2
:100D7000A28340815181840F951F8A179B0771F4CC
:100D80008D919C911197840F951F0296918380837A
:100D900012968D919C91139793838283211531052F
:100DA00029F4F0939F02E0939E023EC0D90113966E
:100DB000FC93EE9312974D915D91A40FB51FEA1726
:100DC000FB0779F480819181840F951F0296D901E8
:100DD00011969C938E938281938113969C938E930C
:100DE0001297E0E0F0E08A819B81009719F0FE0104
:100DF000EC01F9CFCE01029628813981820F931F31
:100E000020919C0230919D022817390769F4309790
:100E100029F410929F0210929E0202C01382128245
:100E2000D0939D02C0939C02DF91CF910895F894D6
:100E30000C944207A1E21A2EAA1BBB1BFD010DC098
:100E4000AA1FBB1FEE1FFF1FA217B307E407F5077A
:100E500020F0A21BB30BE40BF50B661F771F881F56
:100E6000991F1A9469F760957095809590959B01EC
:100E7000AC01BD01CF010895EE0FFF1F0590F49165
:080E8000E02D0994F894FFCF66
:100E88000000A0022000828383FF80807E81818110
:100E9800817E73746172740063686172203D200002
:100EA800626C7961740000000000C2014B036801A4
:100EB80095017A01B70168656164206372656174A0
:100EC800656400616464696E6720636861720066C6
:100ED800696C6C696E672068656164006865616447
:100EE80020616C7265616479206578697374006348
:100EF80072656174696E67206E6577206E6F6465D0
:100F0800006E6F646520616C726561642065786944
:100F180073742C20676F696E6720746F206E657715
:100F2800206E6F64650068656164206973206E7562
:100F38006C6C0068656164206973206E6F74206E44
:100F4800756C6C006865616420697320656D7074E8
:100F580079006320697320006E6F646520666F7581
:040F68006E64200093
:00000001FF
